{
  "_format": "hh-sol-artifact-1",
  "contractName": "simpleCryptoCurrency",
  "sourceName": "contracts/simple.sol",
  "abi": [
    {
      "inputs": [],
      "stateMutability": "nonpayable",
      "type": "constructor"
    },
    {
      "inputs": [],
      "name": "addCoin",
      "outputs": [],
      "stateMutability": "payable",
      "type": "function"
    },
    {
      "inputs": [
        {
          "internalType": "uint256",
          "name": "amount",
          "type": "uint256"
        }
      ],
      "name": "burn",
      "outputs": [],
      "stateMutability": "nonpayable",
      "type": "function"
    },
    {
      "inputs": [],
      "name": "getCoinAmount",
      "outputs": [
        {
          "internalType": "uint256",
          "name": "",
          "type": "uint256"
        }
      ],
      "stateMutability": "view",
      "type": "function"
    },
    {
      "inputs": [
        {
          "internalType": "uint256",
          "name": "amount",
          "type": "uint256"
        }
      ],
      "name": "mint",
      "outputs": [],
      "stateMutability": "nonpayable",
      "type": "function"
    },
    {
      "inputs": [
        {
          "internalType": "address",
          "name": "to",
          "type": "address"
        },
        {
          "internalType": "uint256",
          "name": "amount",
          "type": "uint256"
        }
      ],
      "name": "transfer",
      "outputs": [],
      "stateMutability": "nonpayable",
      "type": "function"
    }
  ],
  "bytecode": "0x60806040526040518060400160405280600681526020017f53696d706c6500000000000000000000000000000000000000000000000000008152506001908051906020019061004f9291906100a7565b50600060025534801561006157600080fd5b50336000806101000a81548173ffffffffffffffffffffffffffffffffffffffff021916908373ffffffffffffffffffffffffffffffffffffffff160217905550610144565b828054600181600116156101000203166002900490600052602060002090601f016020900481019282601f106100e857805160ff1916838001178555610116565b82800160010185558215610116579182015b828111156101155782518255916020019190600101906100fa565b5b5090506101239190610127565b5090565b5b80821115610140576000816000905550600101610128565b5090565b610333806101536000396000f3fe60806040526004361061004a5760003560e01c80632d6019851461004f57806342966c6814610059578063623e9ba614610094578063a0712d68146100bf578063a9059cbb146100fa575b600080fd5b610057610155565b005b34801561006557600080fd5b506100926004803603602081101561007c57600080fd5b8101908080359060200190929190505050610167565b005b3480156100a057600080fd5b506100a961022b565b6040518082815260200191505060405180910390f35b3480156100cb57600080fd5b506100f8600480360360208110156100e257600080fd5b8101908080359060200190929190505050610235565b005b34801561010657600080fd5b506101536004803603604081101561011d57600080fd5b81019080803573ffffffffffffffffffffffffffffffffffffffff169060200190929190803590602001909291905050506102f9565b005b34600260008282540192505081905550565b60008054906101000a900473ffffffffffffffffffffffffffffffffffffffff1673ffffffffffffffffffffffffffffffffffffffff163373ffffffffffffffffffffffffffffffffffffffff1614610228576040517f08c379a000000000000000000000000000000000000000000000000000000000815260040180806020018281038252601d8152602001807f4f6e6c79206f776e65722063616e20646f207468697320616374696f6e00000081525060200191505060405180910390fd5b50565b6000600254905090565b60008054906101000a900473ffffffffffffffffffffffffffffffffffffffff1673ffffffffffffffffffffffffffffffffffffffff163373ffffffffffffffffffffffffffffffffffffffff16146102f6576040517f08c379a000000000000000000000000000000000000000000000000000000000815260040180806020018281038252601d8152602001807f4f6e6c79206f776e65722063616e20646f207468697320616374696f6e00000081525060200191505060405180910390fd5b50565b505056fea264697066735822122051c3ffc3e6c676b5cdf3115c5c42b1fc1ed6ca903c35fd7689ec1903806702e064736f6c63430007030033",
  "linkReferences": {},
  "deployedLinkReferences": {}
}